:020000020000FC
:1000000002D020D008953BD008D0B1E0A0E039D094
:1000100049F005D038D00C9407001FEF08951D93C8
:100020001F5008952CD008D0B1E0AAE02AD049F0A2
:1000300005D029D00C9416001FEF08951D931F5072
:10004000089508951CD0112711D01BD021F013D092
:100050001AD00C94250008952991319108953D936B
:100060002D930895230F3327311F0895D1E0C0E069
:10007000F1E0EAE00895F0DFF5DFF1DF0895002711
:0A00800008950A30089503950895CD
:00000001FF
